{
  "_format": "hh-sol-artifact-1",
  "contractName": "Test",
  "sourceName": "contracts/Test.sol",
  "abi": [
    {
      "inputs": [],
      "stateMutability": "nonpayable",
      "type": "constructor"
    },
    {
      "inputs": [],
      "name": "getLatestPrice",
      "outputs": [
        {
          "internalType": "int256",
          "name": "",
          "type": "int256"
        }
      ],
      "stateMutability": "view",
      "type": "function"
    },
    {
      "inputs": [],
      "name": "getNum",
      "outputs": [
        {
          "internalType": "uint32",
          "name": "",
          "type": "uint32"
        }
      ],
      "stateMutability": "view",
      "type": "function"
    },
    {
      "inputs": [],
      "name": "oldgetLatestPrice",
      "outputs": [
        {
          "internalType": "uint32",
          "name": "",
          "type": "uint32"
        }
      ],
      "stateMutability": "view",
      "type": "function"
    }
  ],
  "bytecode": "0x608060405234801561001057600080fd5b5073d4a33860578de61dbabdc8bfdb98fd742fa7028e6000806101000a81548173ffffffffffffffffffffffffffffffffffffffff021916908373ffffffffffffffffffffffffffffffffffffffff160217905550610319806100746000396000f3fe608060405234801561001057600080fd5b50600436106100415760003560e01c806367e0badb146100465780638e15f47314610064578063c1c82ed914610082575b600080fd5b61004e6100a0565b60405161005b9190610170565b60405180910390f35b61006c6100a9565b60405161007991906101a4565b60405180910390f35b61008a610148565b6040516100979190610170565b60405180910390f35b60006008905090565b60008060008054906101000a900473ffffffffffffffffffffffffffffffffffffffff1673ffffffffffffffffffffffffffffffffffffffff1663feaf968c6040518163ffffffff1660e01b815260040160a060405180830381865afa158015610117573d6000803e3d6000fd5b505050506040513d601f19601f8201168201806040525081019061013b9190610268565b5050509150508091505090565b60006058905090565b600063ffffffff82169050919050565b61016a81610151565b82525050565b60006020820190506101856000830184610161565b92915050565b6000819050919050565b61019e8161018b565b82525050565b60006020820190506101b96000830184610195565b92915050565b600080fd5b600069ffffffffffffffffffff82169050919050565b6101e3816101c4565b81146101ee57600080fd5b50565b600081519050610200816101da565b92915050565b61020f8161018b565b811461021a57600080fd5b50565b60008151905061022c81610206565b92915050565b6000819050919050565b61024581610232565b811461025057600080fd5b50565b6000815190506102628161023c565b92915050565b600080600080600060a08688031215610284576102836101bf565b5b6000610292888289016101f1565b95505060206102a38882890161021d565b94505060406102b488828901610253565b93505060606102c588828901610253565b92505060806102d6888289016101f1565b915050929550929590935056fea264697066735822122030cc51fea8214945c3a2c319a56a8d2f002a32eaba60df3455ec4bf7a121f45d64736f6c63430008110033",
  "linkReferences": {},
  "deployedLinkReferences": {}
}